:030003000108559C
:03000B0002009A56
:10009A00C0E0C0D075D000C000C006C007758A870E
:1000AA00758CFEE5097006C2B10509802CE509B414
:1000BA000909C28CD2B1750900801EE50914FF74C2
:1000CA00017E00A807088005C333CE33CED8F9FFD6
:1000DA00EF550824FF92B10509D007D006D000D009
:0400EA00D0D0E03260
:10010B005389F0438901758A87758CFEC28DC28C29
:05011B00D2A9D2AF22C1
:1000EE0012010BD2B120B3FD7F147E00120120301D
:0D00FE00B3FD7F147E00120120D28C80E83B
:10012000EF1FAC0670011E4C600A7D027CC7DCFE2E
:04013000DDFC80EC86
:0101340022A8
:0300000002000EED
:0C000E00787FE4F6D8FD758109020055EA
:10001A000200EEE493A3F8E493A34003F68001F20E
:10002A0008DFF48029E493A3F85407240CC8C333E7
:10003A00C4540F4420C8834004F456800146F6DFB6
:10004A00E4800B0102040810204080900003E47E43
:10005A00019360BCA3FF543F30E509541FFEE493AB
:10006A00A360010ECF54C025E060A840B8E493A372
:10007A00FAE493A3F8E493A3C8C582C8CAC583CA9D
:10008A00F0A3C8C582C8CAC583CADFE9DEE780BE55
:0100060000F9
:00000001FF
